:020000040800F2
:1000000000500020091F0008711B0008771B000822
:100010007D1B0008831B0008891B000800000000EE
:100020000000000000000000000000008F1B00081E
:100030009B1B000800000000A71B0008B31B000862
:10004000511F0008511F0008511F0008511F0008D0
:10005000511F0008511F0008511F0008511F0008C0
:10006000511F0008511F0008511F0008511F0008B0
:10007000511F0008511F0008511F0008511F0008A0
:10008000511F0008511F0008511F0008511F000890
:10009000511F0008511F0008511F0008511F000880
:1000A000511F0008511F0008511F0008511F000870
:1000B000C11B0008511F0008511F0008511F0008F4
:1000C000511F0008511F0008511F0008511F000850
:1000D000511F0008511F0008511F0008511F000840
:1000E000D51B0008511F0008511F00080000000028
:1000F0000000000000000000000000000000000000
:0C01000000000000000000005FF808F1A3
:1001100010B5054C237833B9044B13B10448AFF341
:1001200000800123237010BDDC01002000000000CE
:100130008080000808B5034B1BB103490348AFF3A7
:10014000008008BD00000000E00100208080000861
:10015000034613F8012B002AFBD1181A0138704707
:1001600081F0004102E000BF83F0004330B54FEA68
:1001700041044FEA430594EA050F08BF90EA020FD5
:100180001FBF54EA000C55EA020C7FEA645C7FEA68
:10019000655C00F0E2804FEA5454D4EB5555B8BF8B
:1001A0006D420CDD2C4480EA020281EA030382EAFC
:1001B000000083EA010180EA020281EA0303362D8E
:1001C00088BF30BD11F0004F4FEA01314FF4801C61
:1001D0004CEA113102D0404261EB410113F0004F73
:1001E0004FEA03334CEA133302D0524263EB43032A
:1001F00094EA050F00F0A780A4F10104D5F1200EC8
:100200000DDB02FA0EFC22FA05F2801841F1000122
:1002100003FA0EF2801843FA05F359410EE0A5F1F6
:1002200020050EF1200E012A03FA0EFC28BF4CF027
:10023000020C43FA05F3C01851EBE37101F00045DD
:1002400007D54FF0000EDCF1000C7EEB00006EEBEA
:100250000101B1F5801F1BD3B1F5001F0CD3490874
:100260005FEA30004FEA3C0C04F101044FEA4452CB
:1002700012F5800F80F09A80BCF1004F08BF5FEA52
:10028000500C50F1000041EB045141EA050130BD32
:100290005FEA4C0C404141EB0101013C28BFB1F544
:1002A000801FE9D291F0000F04BF01460020B1FA8F
:1002B00081F308BF2033A3F10B03B3F120020CDA62
:1002C0000C3208DD02F1140CC2F10C0201FA0CF040
:1002D00021FA02F10CE002F11402D8BFC2F1200CA5
:1002E00001FA02F120FA0CFCDCBF41EA0C0190405B
:1002F000E41AA2BF01EB0451294330BD6FEA0404A4
:100300001F3C1CDA0C340EDC04F11404C4F120028E
:1003100020FA04F001FA02F340EA030021FA04F3A0
:1003200045EA030130BDC4F10C04C4F1200220FAF7
:1003300002F001FA04F340EA0300294630BD21FA35
:1003400004F0294630BD94F0000F83F4801306BFFB
:1003500081F480110134013D4EE77FEA645C18BFEF
:100360007FEA655C29D094EA050F08BF90EA020F86
:1003700005D054EA000C04BF1946104630BD91EA7E
:10038000030F1EBF0021002030BD5FEA545C05D181
:100390004000494128BF41F0004130BD14F58004C0
:1003A0003CBF01F5801130BD01F0004545F0FE4134
:1003B00041F470014FF0000030BD7FEA645C1ABF69
:1003C000194610467FEA655C1CBF0B46024650EAA0
:1003D000013406BF52EA033591EA030F41F40021CC
:1003E00030BD00BF90F0000F04BF0021704730B552
:1003F0004FF4806404F132044FF000054FF0000127
:1004000050E700BF90F0000F04BF0021704730B5E7
:100410004FF4806404F1320410F0004548BF4042BC
:100420004FF000013EE700BF42004FEAE2014FEA11
:1004300031014FEA02701FBF12F07F4393F07F4FEC
:1004400081F06051704732F07F4208BF704793F0EF
:100450007F4F04BF41F40021704730B54FF4607402
:1004600001F0004521F000411CE700BF50EA010205
:1004700008BF704730B54FF000050AE050EA0102AE
:1004800008BF704730B511F0004502D5404261EB1E
:1004900041014FF4806404F132045FEA915C3FF45F
:1004A000D8AE4FF003025FEADC0C18BF03325FEAFC
:1004B000DC0C18BF033202EBDC02C2F1200300FAAD
:1004C00003FC20FA02F001FA03FE40EA0E0021FAD2
:1004D00002F11444BDE600BF70B54FF0FF0C4CF4C0
:1004E000E06C1CEA11541DBF1CEA135594EA0C0F72
:1004F00095EA0C0F00F0DEF82C4481EA030621EAAD
:100500004C5123EA4C5350EA013518BF52EA0335E7
:1005100041F4801143F4801338D0A0FB02CE4FF099
:100520000005E1FB02E506F00042E0FB03E54FF0C9
:100530000006E1FB03569CF0000F18BF4EF0010EC1
:10054000A4F1FF04B6F5007F64F5407404D25FEABD
:100550004E0E6D4146EB060642EAC62141EA555170
:100560004FEAC52040EA5E504FEACE2EB4F1FD0CB2
:1005700088BFBCF5E06F1ED8BEF1004F08BF5FEA30
:10058000500E50F1000041EB045170BD06F00046E2
:1005900046EA010140EA020081EA0301B4EB5C048F
:1005A000C2BFD4EB0C0541EA045170BD41F4801187
:1005B0004FF0000E013C00F3AB8014F1360FDEBFAC
:1005C000002001F0004170BDC4F10004203C35DA88
:1005D0000C341BDC04F11404C4F1200500FA05F30B
:1005E00020FA04F001FA05F240EA020001F00042AC
:1005F00021F0004110EBD37021FA04F642EB060122
:100600005EEA430E08BF20EAD37070BDC4F10C044B
:10061000C4F1200500FA04F320FA05F001FA04F20F
:1006200040EA020001F0004110EBD37041F10001FB
:100630005EEA430E08BF20EAD37070BDC4F1200506
:1006400000FA05F24EEA020E20FA04F301FA05F26E
:1006500043EA020321FA04F001F0004121FA04F216
:1006600020EA020000EBD3705EEA430E08BF20EAE6
:10067000D37070BD94F0000F0FD101F00046400020
:1006800041EB010111F4801F08BF013CF7D041EAA2
:10069000060195F0000F18BF704703F000465200A6
:1006A00043EB030313F4801F08BF013DF7D043EA77
:1006B0000603704794EA0C0F0CEA135518BF95EA2D
:1006C0000C0F0CD050EA410618BF52EA4306D1D1B4
:1006D00081EA030101F000414FF0000070BD50EAD3
:1006E000410606BF1046194652EA430619D094EA5D
:1006F0000C0F02D150EA013613D195EA0C0F05D147
:1007000052EA03361CBF104619460AD181EA03019A
:1007100001F0004141F0FE4141F470014FF0000052
:1007200070BD41F0FE4141F4780170BD70B54FF0ED
:10073000FF0C4CF4E06C1CEA11541DBF1CEA13556D
:1007400094EA0C0F95EA0C0F00F0A7F8A4EB05044F
:1007500081EA030E52EA03354FEA013100F0888046
:100760004FEA03334FF0805545EA131343EA12630F
:100770004FEA022245EA111545EA10654FEA0026C4
:100780000EF000419D4208BF964244F1FD0404F57D
:10079000407402D25B084FEA3202B61A65EB0305D9
:1007A0005B084FEA32024FF480104FF4002CB6EB96
:1007B000020E75EB030E22BFB61A754640EA0C0016
:1007C0005B084FEA3202B6EB020E75EB030E22BF56
:1007D000B61A754640EA5C005B084FEA3202B6EB97
:1007E000020E75EB030E22BFB61A754640EA9C0056
:1007F0005B084FEA3202B6EB020E75EB030E22BF26
:10080000B61A754640EADC0055EA060E18D04FEAE3
:10081000051545EA16754FEA06164FEAC30343EA83
:1008200052734FEAC2025FEA1C1CC0D111F4801F50
:100830000BD141EA00014FF000004FF0004CB6E749
:1008400011F4801F04BF01430020B4F1FD0C88BFE8
:10085000BCF5E06F3FF6AFAEB5EB030C04BFB6EBF3
:10086000020C5FEA500C50F1000041EB045170BDE6
:100870000EF0004E4EEA113114EB5C04C2BFD4EB13
:100880000C0541EA045170BD41F480114FF0000E97
:10089000013C90E645EA060E8DE60CEA135594EA13
:1008A0000C0F08BF95EA0C0F3FF43BAF94EA0C0F16
:1008B0000AD150EA01347FF434AF95EA0C0F7FF48B
:1008C00025AF104619462CE795EA0C0F06D152EADF
:1008D00003353FF4FDAE1046194622E750EA4106C3
:1008E00018BF52EA43067FF4C5AE50EA41047FF4D4
:1008F0000DAF52EA43057FF4EBAE12E74FF0FF3C39
:1009000006E000BF4FF0010C02E000BF4FF0010C09
:100910004DF804CD4FEA410C7FEA6C5C4FEA430C82
:1009200018BF7FEA6C5C1BD001B050EA410C0CBFD1
:1009300052EA430C91EA030F02BF90EA020F002033
:10094000704710F1000F91EA030F58BF994208BF9A
:1009500090422CBFD8176FEAE37040F00100704757
:100960004FEA410C7FEA6C5C02D150EA013C07D1AE
:100970004FEA430C7FEA6C5CD6D152EA033CD3D0F9
:100980005DF8040B704700BF8446104662468C46F3
:100990001946634600E000BF01B5FFF7B7FF002826
:1009A00048BF10F1000F01BD4DF808EDFFF7F4FF4F
:1009B0000CBF012000205DF808FB00BF4DF808EDDA
:1009C000FFF7EAFF34BF012000205DF808FB00BFFD
:1009D0004DF808EDFFF7E0FF94BF012000205DF81F
:1009E00008FB00BF4DF808EDFFF7CEFF94BF0120D4
:1009F00000205DF808FB00BF4DF808EDFFF7C4FFCD
:100A000034BF012000205DF808FB00BF4FEA410C15
:100A10007FEA6C5C02D150EA013C0AD14FEA430CF8
:100A20007FEA6C5C02D152EA033C02D14FF0000035
:100A300070474FF0010070474FEA410212F5001273
:100A400015D211D56FF47873B3EB625212D94FEA15
:100A5000C12343F0004343EA505311F0004F23FAFF
:100A600002F018BF404270474FF00000704750EA54
:100A7000013005D111F0004008BF6FF00040704711
:100A80004FF00000704700BF80F0004002E000BF60
:100A900081F0004142001FBF5FEA410392EA030F69
:100AA0007FEA226C7FEA236C6AD04FEA1262D2EBB3
:100AB0001363C1BFD218414048404140B8BF5B42B8
:100AC000192B88BF704710F0004F40F4000020F051
:100AD0007F4018BF404211F0004F41F4000121F067
:100AE0007F4118BF494292EA030F3FD0A2F10102B1
:100AF00041FA03FC10EB0C00C3F1200301FA03F1EF
:100B000000F0004302D5494260EB4000B0F5000F11
:100B100013D3B0F1807F06D340084FEA310102F1D0
:100B20000102FE2A51D2B1F1004F40EBC25008BF82
:100B300020F0010040EA03007047490040EB00004C
:100B4000013A28BFB0F5000FEDD2B0FA80FCACF14D
:100B5000080CB2EB0C0200FA0CF0AABF00EBC2507A
:100B600052421843BCBFD0401843704792F0000F68
:100B700081F4000106BF80F400000132013BB5E7BB
:100B80004FEA41037FEA226C18BF7FEA236C21D031
:100B900092EA030F04D092F0000F08BF0846704796
:100BA00090EA010F1CBF0020704712F07F4F04D164
:100BB000400028BF40F00040704712F100723CBF77
:100BC00000F50000704700F0004343F0FE4040F4A1
:100BD000000070477FEA226216BF08467FEA23635F
:100BE0000146420206BF5FEA412390EA010F40F44A
:100BF000800070474FF0000304E000BF10F0004396
:100C000048BF40425FEA000C08BF704743F096437C
:100C100001464FF000001CE050EA010208BF704797
:100C20004FF000030AE000BF50EA010208BF70471E
:100C300011F0004302D5404261EB41015FEA010C33
:100C400002BF84460146002043F0B64308BFA3F12B
:100C50008053A3F50003BCFA8CF2083AA3EBC2530D
:100C600010DB01FA02FC634400FA02FCC2F120022C
:100C7000BCF1004F20FA02F243EB020008BF20F063
:100C80000100704702F1200201FA02FCC2F12002C9
:100C900050EA4C0021FA02F243EB020008BF20EABE
:100CA000DC7070474FF0FF0C1CEAD0521EBF1CEAEC
:100CB000D15392EA0C0F93EA0C0F6FD01A4480EADA
:100CC000010C400218BF5FEA41211ED04FF00063C3
:100CD00043EA501043EA5111A0FB01310CF00040EF
:100CE000B1F5000F3EBF490041EAD3715B0040EA15
:100CF000010062F17F02FD2A1DD8B3F1004F40EBE5
:100D0000C25008BF20F00100704790F0000F0CF0B7
:100D1000004C08BF49024CEA502040EA51207F3A7B
:100D2000C2BFD2F1FF0340EAC250704740F4000056
:100D30004FF00003013A5DDC12F1190FDCBF00F047
:100D400000407047C2F10002410021FA02F1C2F1F5
:100D5000200200FA02FC5FEA310040F1000053EA91
:100D60004C0308BF20EADC70704792F0000F00F0DF
:100D7000004C02BF400010F4000F013AF9D040EAE5
:100D80000C0093F0000F01F0004C02BF490011F479
:100D9000000F013BF9D041EA0C018FE70CEAD15377
:100DA00092EA0C0F18BF93EA0C0F0AD030F0004CF7
:100DB00018BF31F0004CD8D180EA010000F00040AB
:100DC000704790F0000F17BF90F0004F084691F069
:100DD000000F91F0004F14D092EA0C0F01D14202A3
:100DE0000FD193EA0C0F03D14B0218BF084608D16C
:100DF00080EA010000F0004040F0FE4040F40000B6
:100E0000704740F0FE4040F4400070474FF0FF0C48
:100E10001CEAD0521EBF1CEAD15392EA0C0F93EA8F
:100E20000C0F69D0A2EB030280EA010C49024FEAE1
:100E3000402037D04FF0805343EA111143EA10139A
:100E40000CF000408B4238BF5B0042F17D024FF452
:100E5000000C8B4224BF5B1A40EA0C00B3EB510F2D
:100E600024BFA3EB510340EA5C00B3EB910F24BF16
:100E7000A3EB910340EA9C00B3EBD10F24BFA3EB9B
:100E8000D10340EADC001B0118BF5FEA1C1CE0D163
:100E9000FD2A3FF650AF8B4240EBC25008BF20F016
:100EA000010070470CF0004C4CEA50207F32C2BF6A
:100EB000D2F1FF0340EAC250704740F400004FF007
:100EC0000003013A37E792F0000F00F0004C02BF38
:100ED000400010F4000F013AF9D040EA0C0093F002
:100EE000000F01F0004C02BF490011F4000F013B5C
:100EF000F9D041EA0C0195E70CEAD15392EA0C0FC4
:100F000008D142027FF47DAF93EA0C0F7FF470AFFB
:100F1000084676E793EA0C0F04D14B023FF44CAF3E
:100F200008466EE730F0004C18BF31F0004CCAD1D3
:100F300030F000427FF45CAF31F000437FF43CAF0F
:100F40005FE700BF80B485B000AF78600B46FB70F0
:100F5000FF23FB730023BB7322E07B681A78FB7BC3
:100F60005340FB7300237B7311E097F90F30002B84
:100F700007DAFB7B5B005BB283F031035BB2FB7390
:100F800002E0FB7B5B00FB737B7B01337B737B7B32
:100F9000072BEAD97B6801337B60BB7B0133BB73D2
:100FA000BA7BFB789A42D8D3FB7B18461437BD46F0
:100FB00080BC704780B588B004AF0346FB71002346
:100FC000FB730023BB73FB799AB264230293012362
:100FD000019307F10E03009301237021074801F0EC
:100FE000D3FF0346FB73FB79BA7B1946044804F030
:100FF00019FEBB7B18461037BD4680BD100200208D
:101000009880000880B58AB002AF0023FB77642087
:1010100001F002F87120FFF7CDFF0346FB75FB7D61
:1010200003F01803182B40F0B9800A2000F0F4FFF9
:10103000AC233B7333237B730023BB7307F10C0298
:101040006423009303237021584801F033FC50209F
:1010500000F0E2FF00233B613A1D64230093072365
:101060007021524801F024FD0023BB610BE03A1DC2
:10107000BB6913441B781A46B9694D4804F0D2FD88
:10108000BB690133BB61BB69062BF0DD3B795BB209
:10109000002B79DB3B1D06211846FFF753FF034663
:1010A0001A46BB7A9A4269D1424804F041FE7B79E4
:1010B0003B613B691B023B61BB791A463B691344A8
:1010C0003B613B691B023B61FB791A463B69134458
:1010D0003B613B691B093B613869FFF78BFD0346A8
:1010E00035491846FFF7DEFD03464FF09341184699
:1010F000FFF78CFE03461A46304B1A602F4B1B68D5
:101100001846FFF791F902460B462D4804F08AFD78
:10111000FB7903F00F033B613B691B023B613B7AA8
:101120001A463B6913443B613B691B023B617B7A76
:101130001A463B6913443B613869FFF75BFD034680
:1011400020491846FFF7AEFD03464FF0934118467D
:10115000FFF75CFE03461C491846FFF799FC03465F
:101160001A461A4B1A60194B1B681846FFF75CF9B0
:1011700002460B46164804F055FD11E0154804F0F0
:10118000D7FD0223FB770BE03B7903F08003194680
:10119000114804F047FD0323FB7701E00123FB77AF
:1011A000FB7F18462037BD4680BD00BF10020020DF
:1011B000B4800008C88000080000C842F801002080
:1011C000D08000080000484300004842FC01002095
:1011D000E0800008F0800008FC80000880B590B036
:1011E00002AFFFF70FFF034687F8373097F8373025
:1011F000002B44D14A4B1B681846FFF715F90246ED
:101200000B46381DCDE90023464A322104F0A8FDE3
:101210003B1D1846FEF79CFF03469AB2391D4FF05E
:10122000FF33414803F0E2FD0021012000F04AFEB7
:101230003B1D184600F02AFE3C4B1B681846FFF782
:10124000F3F802460B46381DCDE90023384A322117
:1012500004F086FD3B1D1846FEF77AFF03469AB25E
:10126000391D4FF0FF33304803F0C0FD002102204C
:1012700000F028FE3B1D184600F008FE4CE097F8F1
:101280003730032B24D13B1D2A4A3221184604F063
:1012900067FD3B1D1846FEF75BFF03469AB2391DFA
:1012A0004FF0FF33204803F0A1FD3B1D224A3221BD
:1012B000184604F055FD3B1D1846FEF749FF03464E
:1012C0009AB2391D4FF0FF33174803F08FFD23E02A
:1012D0003B1D1A4A3221184604F042FD3B1D1846B8
:1012E000FEF736FF03469AB2391D4FF0FF330E4822
:1012F00003F07CFD3B1D124A3221184604F030FDFC
:101300003B1D1846FEF724FF03469AB2391D4FF0E5
:10131000FF33054803F06AFD00BF3837BD4680BD86
:10132000F80100201881000800030020FC010020C3
:101330002C81000840810008588100087081000855
:101340008881000880B500AF4FF40071024801F0B9
:1013500031F900BF80BD00BF0010014080B500AF73
:1013600000F0F8FD00F028F800F03AF900F0C2F8BB
:1013700000F092F800F062F800F008F90B4803F072
:1013800043F900F0ABF900F053FD00F094FD4FF489
:101390007A720A21064800F017FA4FF47A72002197
:1013A000044800F011FA00F09BFAFCE7B8020020B4
:1013B000DD1100084513000880B590B000AF07F1BB
:1013C000180328220021184603F01EFF3B1D0022AF
:1013D0001A605A609A60DA601A610223BB610123C5
:1013E000BB621023FB6202237B630023BB634FF4C9
:1013F0006013FB6307F11803184602F0A7FC0346CD
:10140000002B01D000F064F90F237B600223BB6046
:101410000023FB604FF480633B6100237B613B1D35
:101420000221184602F012FF0346002B01D000F003
:101430004FF900BF4037BD4680BD000080B500AF0A
:10144000124B134A1A60114B124A5A600F4B00227A
:101450009A600E4B0022DA600C4B4FF480421A6106
:101460000A4B00225A61094B00229A61074B002265
:10147000DA61064B00221A62044801F0D7F80346ED
:10148000002B01D000F024F900BF80BD1002002025
:1014900000540040A086010080B500AF124B134AF3
:1014A0001A60114B124A5A600F4B00229A600E4B81
:1014B0000022DA600C4B4FF480421A610A4B002282
:1014C0005A61094B00229A61074B0022DA61064BF0
:1014D00000221A62044801F0A9F80346002B01D04B
:1014E00000F0F6F800BF80BD640200200058004004
:1014F000A086010080B586B000AF07F10803002286
:101500001A605A609A60DA603B4600221A605A609C
:101510001D4B4FF080421A601B4B4FF6FF125A6072
:10152000194B00229A60184B0922DA60164B0022F0
:101530001A61154B00229A61134803F015F803460F
:10154000002B01D000F0C4F84FF48053BB6007F1CA
:10155000080319460C4803F099F90346002B01D003
:1015600000F0B6F800233B6000237B603B46194641
:10157000054803F07BFB0346002B01D000F0A8F8E0
:1015800000BF1837BD4680BDB802002080B500AF4F
:10159000114B124A1A60104B4FF416525A600E4B00
:1015A00000229A600C4B0022DA600B4B00221A6179
:1015B000094B0C225A61084B00229A61064B00220B
:1015C000DA61054803F0C2FB0346002B01D000F0AE
:1015D0007FF800BF80BD00BF000300200044004032
:1015E00080B588B000AF07F1100300221A605A607E
:1015F0009A60DA602E4B9B692D4A43F01003936189
:101600002B4B9B6903F01003FB60FB68284B9B6925
:10161000274A43F020039361254B9B6903F0200385
:10162000BB60BB68224B9B69214A43F00403936172
:101630001F4B9B6903F004037B607B681C4B9B6919
:101640001B4A43F008039361194B9B6903F008039D
:101650003B603B6800224FF40071164800F092FF97
:101660004FF400533B61144B7B610023BB6107F1D6
:10167000100319460F4800F001FE4FF400733B6160
:1016800001237B610023BB610223FB6107F110038F
:101690001946084800F0F2FD00220021282000F041
:1016A000B6FD282000F0CFFD00BF2037BD4680BD2D
:1016B00000100240001001400000111080B582B0FF
:1016C00000AF786000F0C8F800BF0837BD4680BDA5
:1016D00080B400AF72B600BFFEE7000080B400AF78
:1016E000094B00221A60094B00221A60084B0022A5
:1016F0001A60084B01221A60074B00221A6000BFD3
:10170000BD4680BC704700BF500300204C03002042
:1017100058030020480300205403002080B485B003
:1017200000AF7860274B1B68002B03D1254A7B68EC
:10173000136043E0234B1B68FB600023BB6033E076
:10174000FB685A687B685B689A4221D91D4B1B680D
:10175000FA689A420ED11B4B1A687B685A61194A83
:101760007B681360FB685A687B685B68D21AFB6809
:101770005A6023E07B68FA685A61BB687A685A61EC
:10178000FB685A687B685B68D21AFB685A6015E090
:101790007B685A68FB685B68D21A7B685A60FB6892
:1017A000BB60FB685B69FB60FB68002BC8D1FB6812
:1017B000002B03D1BB687A685A6100BF1437BD465D
:1017C00080BC70475003002080B586B000AFF86041
:1017D000B9607A601C4B1B680A2B02D91B4B012293
:1017E0001A70194B1B680133174A1360182003F055
:1017F000FBFC03467B617B69002B01D100231FE0CA
:101800007B69FA681A60BB68114AA2FB0323DA08F5
:101810007B695A607B680E4AA2FB0323DA087B6966
:101820009A600C4B1B685A1C0A490A607A6913615A
:101830007B6900225A617869FFF770FF7B691B6939
:1018400018461837BD4680BD4C030020000200201A
:10185000CDCCCCCC4803002080B483B000AF1D4B6E
:101860001B68002B0BD11C4B1B68002B03D01B4BA0
:101870001B68013300E00023184A136025E0174B72
:101880001B680133154A1360124B1B685B68002B01
:101890001AD0104B1B685A68104B1B68D31A7B6018
:1018A0007B68002B07DB0B4B1B687A685A600B4B7D
:1018B00000221A6008E0074B1B6800225A607B6810
:1018C0005B421A46054B1A6000BF0C37BD4680BC10
:1018D000704700BF500300204C0300205803002035
:1018E00080B582B000AF184B1B68002B04D0164B9C
:1018F0001B685B68002B01D0002321E0124B1B68A2
:101900007B60114B1B685B690F4A13607B68002288
:101910005A617B689A687B685A607B681B68984745
:101920007B681B69094A13607B689B68002B03D0A6
:101930007868FFF7F3FE02E0786803F05DFC0123AE
:1019400018460837BD4680BD5003002054030020D0
:1019500080B485B000AF154B9B69144A43F0010376
:101960009361124B9B6903F00103BB60BB680F4B93
:10197000DB690E4A43F08053D3610C4BDB6903F003
:1019800080537B607B680A4B5B68FB60FB6823F0DD
:10199000E063FB60FB6843F08063FB60044AFB6824
:1019A000536000BF1437BD4680BC70470010024032
:1019B0000000014080B58CB000AF786007F11C03D7
:1019C00000221A605A609A60DA607B681B68324AAB
:1019D000934233D1314B9B69304A43F00803936102
:1019E0002E4B9B6903F00803BB61BB694FF4407346
:1019F000FB6112233B620323BB6207F11C03194600
:101A0000274800F03BFC274B5B68FB62FB6A43F016
:101A1000E063FB62FB6A43F00203FB62214AFB6A5C
:101A200053601E4BDB691D4A43F40013D3611B4B0B
:101A3000DB6903F400137B617B6929E07B681B6829
:101A4000194A934224D1154B9B69144A43F0080369
:101A50009361124B9B6903F008033B613B694FF4B0
:101A60004063FB6112233B620323BB6207F11C034B
:101A700019460B4800F002FC084BDB69074A43F4A7
:101A80008003D361054BDB6903F48003FB60FB68D3
:101A900000BF3037BD4680BD0054004000100240FA
:101AA000000C0140000001400058004080B584B0A7
:101AB00000AF78607B681B68B3F1804F13D10C4B8B
:101AC000DB690B4A43F00103D361094BDB6903F087
:101AD0000103FB60FB68002200211C2000F097FB43
:101AE0001C2000F0B0FB00BF1037BD4680BD00BF1A
:101AF0000010024080B588B000AF786007F1100395
:101B000000221A605A609A60DA607B681B68154A86
:101B1000934223D1144BDB69134A43F40033D3615E
:101B2000114BDB6903F40033FB60FB680E4B9B69D0
:101B30000D4A43F0040393610B4B9B6903F00403CC
:101B4000BB60BB680C233B6102237B610223FB610A
:101B500007F110031946054800F090FB00BF20373D
:101B6000BD4680BD00440040001002400008014016
:101B700080B400AFFEE780B400AFFEE780B400AFF2
:101B8000FEE780B400AFFEE780B400AFFEE780B4AC
:101B900000AF00BFBD4680BC704780B400AF00BF3F
:101BA000BD4680BC704780B400AF00BFBD4680BC5E
:101BB000704780B500AF00F013FA00BF80BD000091
:101BC00080B500AF024802F071FD00BF80BD00BFCC
:101BD000B802002080B500AF4FF4005000F004FDC3
:101BE00000BF80BD80B400AF01231846BD4680BC55
:101BF000704780B582B000AF7860396003F0CAFAF0
:101C0000034616221A604FF0FF3318460837BD46C8
:101C100080BD80B582B000AF78604FF0FF3178684A
:101C2000FFF7E7FFFEE780B586B000AFF860B96068
:101C30007A6000237B610AE0AFF300800146BB6855
:101C40005A1CBA60CAB21A707B6901337B617A6927
:101C50007B689A42F0DB7B6818461837BD4680BD2A
:101C600080B586B000AFF860B9607A6000237B6110
:101C700009E0BB685A1CBA601B781846AFF30080B5
:101C80007B6901337B617A697B689A42F1DB7B680F
:101C900018461837BD4680BD80B483B000AF786069
:101CA0004FF0FF3318460C37BD4680BC704780B4F8
:101CB00083B000AF786039603B684FF400525A60DF
:101CC000002318460C37BD4680BC704780B483B0F3
:101CD00000AF7860012318460C37BD4680BC7047C2
:101CE00080B485B000AFF860B9607A600023184610
:101CF0001437BD4680BC704780B586B000AF7860B1
:101D0000144A154BD31A7B617B693B61134B1B68EB
:101D1000002B02D1114B124A1A60104B1A687B68D3
:101D200013443A699A4207D203F034FA03460C226C
:101D30001A604FF0FF3309E0084B1B68FB60074B4C
:101D40001A687B681344054A1360FB681846183705
:101D5000BD4680BD005000200004000004020020A9
:101D60007003002080B400AF00BFBD4680BC704748
:101D700080B586B002AF0346FB71FB7923F00F03F9
:101D8000FB73FB791B01BB73FB7B43F00C03DBB2E2
:101D90003B72FB7B43F00803DBB27B72BB7B43F0FF
:101DA0000C03DBB2BB72BB7B43F00803DBB2FB72FC
:101DB00007F108026423009304234221034800F042
:101DC00079FD00BF1037BD4680BD00BF1002002066
:101DD00080B586B002AF0346FB71FB7923F00F0399
:101DE000FB73FB791B01BB73FB7B43F00D03DBB281
:101DF0003B72FB7B43F00903DBB27B72BB7B43F09E
:101E00000D03DBB2BB72BB7B43F00903DBB2FB7299
:101E100007F108026423009304234221034800F0E1
:101E200049FD00BF1037BD4680BD00BF1002002035
:101E300080B500AF3320FFF79BFF3220FFF798FFFC
:101E4000322000F0E9F82820FFF792FF322000F05E
:101E5000E3F80120FFF78CFF322000F0DDF80620C8
:101E6000FFF786FF322000F0D7F80C20FFF780FF45
:101E7000322000F0D1F80220FFF77AFF322000F084
:101E8000CBF88020FFF774FF00BF80BD80B582B023
:101E900000AF786006E07B685A1C7A601B781846B1
:101EA000FFF796FF7B681B78002BF4D100BF00BFC3
:101EB0000837BD4680BD80B500AF0120FFF758FF51
:101EC00000BF80BD80B584B000AF786039607B68AA
:101ED000012B08D17B68DAB23B68DBB21344DBB27A
:101EE0007F33FB7308E03B68DBB24033DBB25BB2AD
:101EF00063F07F035BB2FB73FB7B1846FFF738FF91
:101F000000BF1037BD4680BDFFF72CFF0B480C49C2
:101F10000C4A002302E0D458C4500433C4188C4245
:101F2000F9D3094A094C002301E013600432A242AC
:101F3000FBD303F035F9FFF711FA704700000020DA
:101F4000DC010020B4850008DC01002070030020C3
:101F5000FEE7000080B500AF084B1B68074A43F05E
:101F600010031360032000F047F9002000F008F888
:101F7000FFF7EEFC0023184680BD00BF00200240A2
:101F800080B582B000AF7860124B1A68124B1B7894
:101F900019464FF47A73B3FBF1F3B2FBF3F318462F
:101FA00000F05FF90346002B01D001230EE07B68AF
:101FB0000F2B0AD8002279684FF0FF3000F027F984
:101FC000064A7B681360002300E0012318460837A7
:101FD000BD4680BD00000020080000200400002055
:101FE00080B400AF054B1B781A46054B1B681344A1
:101FF000034A136000BFBD4680BC70470800002044
:102000005C03002080B400AF024B1B681846BD463D
:1020100080BC70475C03002080B584B000AF78605E
:10202000FFF7F0FFB8607B68FB60FB68B3F1FF3F30
:1020300005D00A4B1B781A46FB681344FB6000BFAF
:10204000FFF7E0FF0246BB68D31AFA689A42F7D856
:1020500000BF00BF1037BD4680BD00BF0800002094
:1020600080B485B000AF78607B6803F00703FB6045
:102070000C4BDB68BB60BA684FF6FF031340BB60D4
:10208000FB681A02BB68134343F0BF6343F4003399
:10209000BB60044ABB68D36000BF1437BD4680BC38
:1020A000704700BF00ED00E080B400AF044BDB6878
:1020B0001B0A03F007031846BD4680BC704700BFEB
:1020C00000ED00E080B483B000AF0346FB7197F9E8
:1020D0000730002B0BDBFB7903F01F02064997F951
:1020E00007305B09012000FA02F241F8232000BF0B
:1020F0000C37BD4680BC704700E100E080B483B07F
:1021000000AF03463960FB7197F90730002B0ADBFB
:102110003B68DAB20C4997F907301201D2B20B448E
:1021200083F800230AE03B68DAB20849FB7903F040
:102130000F03043B1201D2B20B441A7600BF0C37D6
:10214000BD4680BC704700BF00E100E000ED00E04C
:1021500080B489B000AFF860B9607A60FB6803F0C2
:102160000703FB61FB69C3F10703042B28BF0423AA
:10217000BB61FB690433062B02D9FB69033B00E01A
:1021800000237B614FF0FF32BB6902FA03F3DA43AD
:10219000BB681A407B699A404FF0FF317B6901FAB6
:1021A00003F3D9437B680B40134318462437BD46DD
:1021B00080BC704780B582B000AF78607B68013B1F
:1021C000B3F1807F01D301230FE00A4A7B68013B12
:1021D00053600F214FF0FF30FFF790FF054B0022B7
:1021E0009A60044B07221A60002318460837BD4640
:1021F00080BD00BF10E000E080B582B000AF786025
:102200007868FFF72DFF00BF0837BD4680BD80B559
:1022100086B000AF0346B9607A60FB7300237B6130
:10222000FFF742FF78617A68B9687869FFF790FF35
:10223000024697F90F3011461846FFF75FFF00BFBF
:102240001837BD4680BD80B582B000AF0346FB7134
:1022500097F907301846FFF735FF00BF0837BD462E
:1022600080BD80B582B000AF78607868FFF7A2FFCC
:10227000034618460837BD4680BD000080B48BB0C9
:1022800000AF7860396000237B6200233B6269E124
:1022900001227B6A02FA03F3FB613B681B68FA695F
:1022A0001340BB61BA69FB699A4240F058813B68B0
:1022B0005B689A4A93425ED0984A934275D8984A8E
:1022C000934258D0964A93426FD8964A934252D03E
:1022D000944A934269D8944A93424CD0924A93428A
:1022E00063D8924A934246D0904A93425DD8122BCB
:1022F0002AD8122B59D801A252F823F077230008CC
:102300005123000863230008A5230008AB2300081D
:10231000AB230008AB230008AB230008AB23000865
:10232000AB230008AB230008AB230008AB23000855
:10233000AB230008AB230008AB230008AB23000845
:10234000592300086D230008794A934213D02CE0EA
:102350003B68DB683B6229E03B68DB6804333B6237
:1023600024E03B68DB6808333B621FE03B68DB68C6
:102370000C333B621AE03B689B68002B02D10423BC
:102380003B6213E03B689B68012B05D108233B624D
:102390007B68FA691A6109E008233B627B68FA6985
:1023A0005A6103E000233B6200E000BFBB69FF2BE2
:1023B00001D87B6801E07B6804337B61BB69FF2B3C
:1023C00002D87B6A9B0002E07B6A083B9B003B6172
:1023D0007B691A680F213B6901FA03F3DB431A405A
:1023E000396A3B6901FA03F31A437B691A603B6857
:1023F0005B6803F08053002B00F0B1804D4B9B696C
:102400004C4A43F0010393614A4B9B6903F001037B
:10241000BB60BB68484A7B6A9B08023352F8233092
:10242000FB607B6A03F003039B000F2202FA03F3B5
:10243000DB43FA681340FB607B68404A934213D049
:102440007B683F4A93420DD07B683E4A934207D057
:102450007B683D4A934201D1032306E0042304E054
:10246000022302E0012300E000237A6A02F0030263
:1024700092009340FA681343FB602F497B6A9B08E4
:102480000233FA6841F823203B685B6803F4801349
:10249000002B06D02D4B9A682C49BB6913438B60E7
:1024A00006E02A4B9A68BB69DB43284913408B60DE
:1024B0003B685B6803F40013002B06D0234BDA68FB
:1024C0002249BB691343CB6006E0204BDA68BB6945
:1024D000DB431E491340CB603B685B6803F4003369
:1024E000002B06D0194B5A681849BB6913434B603F
:1024F00006E0164B5A68BB69DB43144913404B6036
:102500003B685B6803F48033002B21D00F4B1A68C3
:102510000E49BB6913430B6021E000BF000032107D
:1025200000003110000022100000211000001210E5
:10253000000011100010024000000140000801409E
:10254000000C014000100140001401400004014053
:102550000B4B1A68BB69DB43094913400B607B6A6C
:1025600001337B623B681A687B6A22FA03F3002B13
:102570007FF48EAE00BF00BF2C37BD4680BC7047D5
:102580000004014080B483B000AF78600B467B80CC
:1025900013467B707B78002B03D07A887B681A61A6
:1025A00003E07B881A047B681A6100BF0C37BD46C4
:1025B00080BC704780B485B000AF78600B467B80EC
:1025C0007B68DB68FB607A88FB6813401A04FB6851
:1025D000D9437B880B401A437B681A6100BF1437CC
:1025E000BD4680BC7047000080B582B000AF034696
:1025F000FB80084B5A69FB881340002B06D0054A24
:10260000FB885361FB88184600F006F800BF0837C6
:10261000BD4680BD0004014080B483B000AF0346D6
:10262000FB8000BF0C37BD4680BC704780B584B0CE
:1026300000AF78607B68002B01D101232BE17B6820
:1026400093F83D30DBB2002B06D17B68002283F883
:102650003C207868FFF7AEF97B68242283F83D20A0
:102660007B681B681A687B681B6822F001021A608D
:102670007B681B681A687B681B6842F400421A601A
:102680007B681B681A687B681B6822F400421A602A
:1026900001F024FFF8607B685B68814A934207D8A9
:1026A000FB68804A934294BF01230023DBB206E01B
:1026B000FB687D4A934294BF01230023DBB2002BC9
:1026C00001D00123E7E0FB68784AA2FB03239B0CBF
:1026D000BB607B681B685B6823F03F017B681B68FD
:1026E000BA680A435A607B681B681B6A23F03F0183
:1026F0007B685B686A4A934202D8BB68013309E091
:10270000BB684FF4967202FB03F3694AA2FB0323F2
:102710009B0901337A6812680B4313627B681B685C
:10272000DB6923F44F4222F0FF027B685B685C495F
:102730008B4219D8FB68591E7B685B685B00B1FB54
:10274000F3F3591C40F6FC730B40002B0AD0FB68D6
:10275000591E7B685B685B00B1FBF3F30133C3F385
:102760000B0351E004234FE07B689B68002B11D1E1
:10277000FB68581E7B6859680B465B000B44B0FB36
:10278000F3F30133C3F30B03002B0CBF012300232E
:10279000DBB212E0FB68581E7B6859680B469B0051
:1027A0000B4499000B44B0FBF3F30133C3F30B0369
:1027B000002B0CBF01230023DBB2002B01D001232F
:1027C00022E07B689B68002B0ED1FB68581E7B685B
:1027D00059680B465B000B44B0FBF3F30133C3F3C2
:1027E0000B0343F400430FE0FB68581E7B685968F5
:1027F0000B469B000B4499000B44B0FBF3F30133F1
:10280000C3F30B0343F44043796809681343CB6176
:102810007B681B681B6823F0C0017B68DA697B68F2
:102820001B6A1A437B681B680A431A607B681B6833
:102830009B6823F4034323F0FF037A6811697A68E5
:10284000D26811437A6812680B4393607B681B68F7
:10285000DB6823F0FF017B685A697B689B691A4338
:102860007B681B680A43DA607B681B681A687B68B0
:102870001B6842F001021A607B6800221A647B68C0
:10288000202283F83D207B6800221A637B680022A7
:1028900083F83E20002318461037BD4680BD00BF98
:1028A000A08601007F841E00FF083D0083DE1B43DD
:1028B000D34D621080B588B002AFF8607A601A46D6
:1028C0000B467B8113463B81FFF79CFB7861FB68DD
:1028D00093F83D30DBB2202B40F0E0807B69009321
:1028E000192301227049F86800F0FAFF0346002B13
:1028F00001D00223D3E0FB6893F83C30012B01D1D7
:102900000223CCE0FB68012283F83C20FB681B68B3
:102910001B6803F00103012B07D0FB681B681A68D2
:10292000FB681B6842F001021A60FB681B681A68AA
:10293000FB681B6822F400621A60FB68212283F89E
:102940003D20FB68102283F83E20FB6800221A64B9
:10295000FB687A685A62FB683A895A85FB685B8D26
:102960009AB2FB681A85FB68504ADA6279897B69FA
:102970003A6AF86800F07CFD0346002B01D0012381
:102980008DE000233B61FB681B685B693B61FB6872
:102990001B689B693B613B6966E07A69396AF86844
:1029A00001F0B8F80346002B0DD0FB681B6C042B1C
:1029B00007D1FB681B681A68FB681B6842F4007249
:1029C0001A6001236BE0FB685B6A1A78FB681B687E
:1029D0001A61FB685B6A5A1CFB685A62FB685B8D74
:1029E0009BB2013B9AB2FB685A85FB681B8D013B89
:1029F0009AB2FB681A85FB681B685B6903F00403E5
:102A0000042B1BD1FB681B8D002B17D0FB685B6A66
:102A10001A78FB681B681A61FB685B6A5A1CFB68C2
:102A20005A62FB685B8D9BB2013B9AB2FB685A8588
:102A3000FB681B8D013B9AB2FB681A857A69396A7B
:102A4000F86801F0AFF80346002B0DD0FB681B6C53
:102A5000042B07D1FB681B681A68FB681B6842F4EB
:102A600000721A6001231AE0FB681B8D002B94D1C1
:102A7000FB681B681A68FB681B6842F400721A60E6
:102A8000FB68202283F83D20FB68002283F83E206B
:102A9000FB68002283F83C20002300E00223184654
:102AA0001837BD4680BD00BF020010000000FFFFC8
:102AB00080B58CB002AFF8607A601A460B467B8115
:102AC00013463B8100233B62FFF79CFA7862FB6868
:102AD00093F83D30DBB2202B40F04B827B6A0093B1
:102AE000192301227F49F86800F0FAFE0346002B03
:102AF00001D002233EE2FB6893F83C30012B01D168
:102B0000022337E2FB68012283F83C20FB681B6844
:102B10001B6803F00103012B07D0FB681B681A68D0
:102B2000FB681B6842F001021A60FB681B681A68A8
:102B3000FB681B6822F400621A60FB68222283F89B
:102B40003D20FB68102283F83E20FB6800221A64B7
:102B5000FB687A685A62FB683A895A85FB685B8D24
:102B60009AB2FB681A85FB685F4ADA6279897B6AE8
:102B70003A6BF86800F0FEFC0346002B01D00123FD
:102B8000F8E1FB681B8D002B13D10023FB61FB6870
:102B90001B685B69FB61FB681B689B69FB61FB69E8
:102BA000FB681B681A68FB681B6842F400721A60B5
:102BB000CCE1FB681B8D012B1ED1FB681B681A68DA
:102BC000FB681B6822F480621A6072B600BF0023A3
:102BD000BB61FB681B685B69BB61FB681B689B6929
:102BE000BB61BB69FB681B681A68FB681B6842F421
:102BF00000721A6062B635E0FB681B8D022B1ED195
:102C0000FB681B681A68FB681B6842F400621A6064
:102C100072B600BF00237B61FB681B685B697B6148
:102C2000FB681B689B697B617B69FB681B681A6892
:102C3000FB681B6822F480621A6062B612E0FB68CF
:102C40001B681A68FB681B6842F480621A600023E4
:102C50003B61FB681B685B693B61FB681B689B69A8
:102C60003B613B6972E1FB681B8D032B00F21F8106
:102C7000FB681B8D012B23D17A6A396BF86800F051
:102C8000D9FF0346002B01D0012373E1FB681B68C9
:102C90001A69FB685B6AD2B21A70FB685B6A5A1CDD
:102CA000FB685A62FB681B8D013B9AB2FB681A8570
:102CB000FB685B8D9BB2013B9AB2FB685A8545E18C
:102CC000FB681B8D022B52D17B6A00933B6B002269
:102CD0000649F86800F004FE0346002B08D00123E3
:102CE00048E100BF020010000000FFFF04000100E7
:102CF00072B600BFFB681B681A68FB681B6842F469
:102D000000721A60FB681B681A69FB685B6AD2B2C2
:102D10001A70FB685B6A5A1CFB685A62FB681B8D61
:102D2000013B9AB2FB681A85FB685B8D9BB2013B45
:102D30009AB2FB685A8562B600BFFB681B681A69C5
:102D4000FB685B6AD2B21A70FB685B6A5A1CFB684C
:102D50005A62FB681B8D013B9AB2FB681A85FB68BF
:102D60005B8D9BB2013B9AB2FB685A85EEE07B6AB1
:102D700000933B6B00228149F86800F0B1FD0346E7
:102D8000002B01D00123F5E0FB681B681A68FB6883
:102D90001B6822F480621A6072B600BFFB681B6871
:102DA0001A69FB685B6AD2B21A70FB685B6A5A1CCC
:102DB000FB685A62FB681B8D013B9AB2FB681A855F
:102DC000FB685B8D9BB2013B9AB2FB685A856C4BEA
:102DD0001B68DB086B4AA2FB03231A0A13469B00FD
:102DE0001344DA00D31A3B623B6A013B3B623B6A05
:102DF000002B18D1FB6800221A63FB68202283F89D
:102E00003D20FB68002283F83E20FB681B6C43F0EA
:102E10002002FB681A6462B600BFFB68002283F8D8
:102E20003C200123A6E0FB681B685B6903F00403F8
:102E3000042BD9D1FB681B681A68FB681B6842F435
:102E400000721A60FB681B681A69FB685B6AD2B281
:102E50001A70FB685B6A5A1CFB685A62FB681B8D20
:102E6000013B9AB2FB681A85FB685B8D9BB2013B04
:102E70009AB2FB685A8562B600BFFB681B681A6984
:102E8000FB685B6AD2B21A70FB685B6A5A1CFB680B
:102E90005A62FB681B8D013B9AB2FB681A85FB687E
:102EA0005B8D9BB2013B9AB2FB685A854EE07A6A11
:102EB000396BF86800F0BEFE0346002B01D00123F9
:102EC00058E0FB681B681A69FB685B6AD2B21A702B
:102ED000FB685B6A5A1CFB685A62FB681B8D013BEE
:102EE0009AB2FB681A85FB685B8D9BB2013B9AB274
:102EF000FB685A85FB681B685B6903F00403042BBD
:102F000024D1FB681B8D032B07D1FB681B681A6853
:102F1000FB681B6822F480621A60FB681B681A69F0
:102F2000FB685B6AD2B21A70FB685B6A5A1CFB686A
:102F30005A62FB681B8D013B9AB2FB681A85FB68DD
:102F40005B8D9BB2013B9AB2FB685A85FB681B8D77
:102F5000002B7FF488AEFB68202283F83D20FB68BD
:102F6000002283F83E20FB68002283F83C200023E7
:102F700000E0022318462837BD4680BD040001004A
:102F80000000002089B5F81480B58CB002AFF8605D
:102F9000084611461A4603467B810B463B81134681
:102FA000FB8000233B62FFF72DF87862FB6893F803
:102FB0003D30DBB2202B40F050827B6A0093192316
:102FC00001228249F86800F08BFC0346002B01D0F7
:102FD000022343E2FB6893F83C30012B01D102232A
:102FE0003CE2FB68012283F83C20FB681B681B68FD
:102FF00003F00103012B07D0FB681B681A68FB680C
:103000001B6842F001021A60FB681B681A68FB68C3
:103010001B6822F400621A60FB68222283F83D20BC
:10302000FB68402283F83E20FB6800221A64FB689C
:103030003A6B5A62FB68BA8E5A85FB685B8D9AB20E
:10304000FB681A85FB68624ADA62F8883A897989EE
:103050007B6A0193BB6B00930346F86800F058FB52
:103060000346002B01D00123F8E1FB681B8D002BE8
:1030700013D10023FB61FB681B685B69FB61FB6884
:103080001B689B69FB61FB69FB681B681A68FB682E
:103090001B6842F400721A60CCE1FB681B8D012BA7
:1030A0001ED1FB681B681A68FB681B6822F48062EB
:1030B0001A6072B600BF0023BB61FB681B685B69C6
:1030C000BB61FB681B689B69BB61BB69FB681B68D4
:1030D0001A68FB681B6842F400721A6062B635E039
:1030E000FB681B8D022B1ED1FB681B681A68FB68EE
:1030F0001B6842F400621A6072B600BF00237B6155
:10310000FB681B685B697B61FB681B689B697B6173
:103110007B69FB681B681A68FB681B6822F4806285
:103120001A6062B612E0FB681B681A68FB681B68CD
:1031300042F480621A6000233B61FB681B685B6994
:103140003B61FB681B689B693B613B6972E1FB6803
:103150001B8D032B00F21F81FB681B8D012B23D1DC
:103160007A6AB96BF86800F065FD0346002B01D060
:10317000012373E1FB681B681A69FB685B6AD2B2C2
:103180001A70FB685B6A5A1CFB685A62FB681B8DED
:10319000013B9AB2FB681A85FB685B8D9BB2013BD1
:1031A0009AB2FB685A8545E1FB681B8D022B52D110
:1031B0007B6A0093BB6B00220649F86800F090FB25
:1031C0000346002B08D0012348E100BF0200100095
:1031D0000000FFFF0400010072B600BFFB681B681F
:1031E0001A68FB681B6842F400721A60FB681B686F
:1031F0001A69FB685B6AD2B21A70FB685B6A5A1C78
:10320000FB685A62FB681B8D013B9AB2FB681A850A
:10321000FB685B8D9BB2013B9AB2FB685A8562B634
:1032200000BFFB681B681A69FB685B6AD2B21A7040
:10323000FB685B6A5A1CFB685A62FB681B8D013B8A
:103240009AB2FB681A85FB685B8D9BB2013B9AB210
:10325000FB685A85EEE07B6A0093BB6B00228149D4
:10326000F86800F03DFB0346002B01D00123F5E098
:10327000FB681B681A68FB681B6822F480621A608E
:1032800072B600BFFB681B681A69FB685B6AD2B242
:103290001A70FB685B6A5A1CFB685A62FB681B8DDC
:1032A000013B9AB2FB681A85FB685B8D9BB2013BC0
:1032B0009AB2FB685A856C4B1B68DB086B4AA2FB11
:1032C00003231A0A13469B001344DA00D31A3B6205
:1032D0003B6A013B3B623B6A002B18D1FB68002232
:1032E0001A63FB68202283F83D20FB68002283F8E4
:1032F0003E20FB681B6C43F02002FB681A6462B638
:1033000000BFFB68002283F83C200123A6E0FB6895
:103310001B685B6903F00403042BD9D1FB681B68AD
:103320001A68FB681B6842F400721A60FB681B682D
:103330001A69FB685B6AD2B21A70FB685B6A5A1C36
:10334000FB685A62FB681B8D013B9AB2FB681A85C9
:10335000FB685B8D9BB2013B9AB2FB685A8562B6F3
:1033600000BFFB681B681A69FB685B6AD2B21A70FF
:10337000FB685B6A5A1CFB685A62FB681B8D013B49
:103380009AB2FB681A85FB685B8D9BB2013B9AB2CF
:10339000FB685A854EE07A6AB96BF86800F04AFC1F
:1033A0000346002B01D0012358E0FB681B681A6913
:1033B000FB685B6AD2B21A70FB685B6A5A1CFB68D6
:1033C0005A62FB681B8D013B9AB2FB681A85FB6849
:1033D0005B8D9BB2013B9AB2FB685A85FB681B6808
:1033E0005B6903F00403042B24D1FB681B8D032BC2
:1033F00007D1FB681B681A68FB681B6822F48062AF
:103400001A60FB681B681A69FB685B6AD2B21A70A3
:10341000FB685B6A5A1CFB685A62FB681B8D013BA8
:103420009AB2FB681A85FB685B8D9BB2013B9AB22E
:10343000FB685A85FB681B8D002B7FF488AEFB6808
:10344000202283F83D20FB68002283F83E20FB68A1
:10345000002283F83C20002300E00223184628378E
:10346000BD4680BD040001000000002089B5F814AD
:1034700080B588B002AFF8607A603B600B467B8114
:10348000FB68DB6A7B617B69082B06D07B69012BBB
:1034900003D07B6913F5803F08D1FB681B681A686D
:1034A000FB681B6842F480721A600BE0FB681B6BC0
:1034B000122B07D1FB681B681A68FB681B6842F473
:1034C00080721A603B6800937B6800224FF0011104
:1034D000F86800F005FA0346002B0DD0FB681B6866
:1034E0001B6803F48073B3F5807F03D1FB684FF44E
:1034F00000721A64032335E0FB681B69B3F5804F43
:1035000008D17B89DBB21A46FB681B6802F0FE0219
:103510001A611BE07B89DB11DBB203F00603DBB22F
:1035200063F00F03DAB2FB681B681A613B687A68C4
:103530000E49F86800F04EFA0346002B01D0012333
:1035400010E07B89DAB2FB681B681A613B687A6815
:103550000749F86800F03EFA0346002B01D001232A
:1035600000E0002318461837BD4680BD0800010062
:103570000200010080B588B002AFF8607A603B605D
:103580000B467B81FB68DB6A7B61FB681B681A6802
:10359000FB681B6842F480621A607B69082B06D0C6
:1035A0007B69012B03D07B6913F5803F08D1FB6851
:1035B0001B681A68FB681B6842F480721A600BE093
:1035C000FB681B6B112B07D1FB681B681A68FB6833
:1035D0001B6842F480721A603B6800937B6800228B
:1035E0004FF00111F86800F07BF90346002B0DD075
:1035F000FB681B681B6803F48073B3F5807F03D1FD
:10360000FB684FF400721A64032379E0FB681B69BE
:10361000B3F5804F08D17B89DBB243F00103DAB206
:10362000FB681B681A615FE07B89DB11DBB203F08A
:103630000603DBB263F00F03DAB2FB681B681A61A2
:103640003B687A683049F86800F0C4F90346002BFB
:1036500001D0012354E07B89DAB2FB681B681A6150
:103660003B687A682949F86800F0B4F90346002BF2
:1036700001D0012344E000233B61FB681B685B69C8
:103680003B61FB681B689B693B613B69FB681B688E
:103690001A68FB681B6842F480721A603B680093EA
:1036A0007B6800224FF00111F86800F019F9034619
:1036B000002B0DD0FB681B681B6803F48073B3F507
:1036C000807F03D1FB684FF400721A64032317E074
:1036D0007B89DB11DBB203F00603DBB263F00E0380
:1036E000DAB2FB681B681A613B687A680749F868B8
:1036F00000F070F90346002B01D0012300E0002305
:1037000018461837BD4680BD0800010002000100C0
:1037100080B588B002AFF860084611461A460346E5
:103720007B810B463B811346FB80FB681B681A6854
:10373000FB681B6842F480621A60FB681B681A68A9
:10374000FB681B6842F480721A607B6A00933B6AD4
:1037500000224FF00111F86800F0C2F80346002B78
:103760000DD0FB681B681B6803F48073B3F5807F82
:1037700003D1FB684FF400721A640323AAE07B892B
:10378000DBB21A46FB681B6802F0FE021A617B6A14
:103790003A6A5249F86800F01DF90346002B01D03F
:1037A000012397E000237B61FB681B685B697B61F9
:1037B000FB681B689B697B617B697A6A396AF86878
:1037C00000F0A8F90346002B0DD0FB681B6C042BFE
:1037D00007D1FB681B681A68FB681B6842F400721B
:1037E0001A60012376E0FB88012B05D13B89DAB210
:1037F000FB681B681A6121E03B891B0A9BB2DAB2A5
:10380000FB681B681A617A6A396AF86800F082F905
:103810000346002B0DD0FB681B6C042B07D1FB6803
:103820001B681A68FB681B6842F400721A60012367
:1038300050E03B89DAB2FB681B681A617A6A396A20
:10384000F86800F067F90346002B0DD0FB681B6C8D
:10385000042B07D1FB681B681A68FB681B6842F4DD
:1038600000721A60012335E0FB681B681A68FB6868
:103870001B6842F480721A607B6A00933B6A0022E4
:103880004FF00111F86800F02BF80346002B0DD023
:10389000FB681B681B6803F48073B3F5807F03D15A
:1038A000FB684FF400721A64032313E07B89DBB2D8
:1038B00043F00103DAB2FB681B681A617B6A3A6A5B
:1038C0000649F86800F086F80346002B01D0012372
:1038D00000E0002318461837BD4680BD02000100F5
:1038E00080B584B000AFF860B9603B601346FB71EF
:1038F00048E03B68B3F1FF3F44D0FEF783FB02464C
:10390000BB69D31A3A689A4202D33B68002B39D17B
:10391000BB681B0CDBB2012B0DD1FB681B685B691C
:10392000DA43BB6813409BB2002B0CBF012300237A
:10393000DBB21A460CE0FB681B689B69DA43BB6884
:1039400013409BB2002B0CBF01230023DBB21A46AD
:10395000FB799A4216D1FB6800221A63FB68202289
:1039600083F83D20FB68002283F83E20FB681B6C37
:1039700043F02002FB681A64FB68002283F83C20B5
:10398000012323E0BB681B0CDBB2012B0DD1FB68CC
:103990001B685B69DA43BB6813409BB2002B0CBF0A
:1039A00001230023DBB21A460CE0FB681B689B690D
:1039B000DA43BB6813409BB2002B0CBF01230023EA
:1039C000DBB21A46FB799A4293D00023184610378F
:1039D000BD4680BD80B584B000AFF860B9607A6044
:1039E0003B6071E0FB681B685B6903F48063B3F5BF
:1039F000806F23D1FB681B681A68FB681B6842F460
:103A000000721A60FB681B686FF480625A61FB6881
:103A100000221A63FB68202283F83D20FB68002205
:103A200083F83E20FB681B6C43F00402FB681A64B9
:103A3000FB68002283F83C20012367E07B68B3F138
:103A4000FF3F41D0FEF7DEFA02463B68D31A7A68A0
:103A50009A4202D37B68002B36D1BB681B0CDBB2C9
:103A6000012B0CD1FB681B685B69DA43BB68134010
:103A70009BB2002B14BF01230023DBB20BE0FB68D9
:103A80001B689B69DA43BB6813409BB2002B14BFD1
:103A900001230023DBB2002B16D0FB6800221A633F
:103AA000FB68202283F83D20FB68002283F83E203B
:103AB000FB681B6C43F02002FB681A64FB68002261
:103AC00083F83C20012321E0BB681B0CDBB2012BF7
:103AD0000CD1FB681B685B69DA43BB6813409BB27F
:103AE000002B14BF01230023DBB20BE0FB681B6833
:103AF0009B69DA43BB6813409BB2002B14BF0123C0
:103B00000023DBB2002B7FF46DAF00231846103783
:103B1000BD4680BD80B584B000AFF860B9607A6002
:103B200034E0F86800F0E3F80346002B01D00123ED
:103B300034E0BB68B3F1FF3F28D0FEF763FA0246DA
:103B40007B68D31ABA689A4202D3BB68002B1DD196
:103B5000FB681B685B6903F08003802B16D0FB6851
:103B600000221A63FB68202283F83D20FB680022B4
:103B700083F83E20FB681B6C43F02002FB681A644C
:103B8000FB68002283F83C20012307E0FB681B68E8
:103B90005B6903F08003802BC3D1002318461037E4
:103BA000BD4680BD80B584B000AFF860B9607A6072
:103BB00034E0F86800F09BF80346002B01D00123A5
:103BC00034E0BB68B3F1FF3F28D0FEF71BFA024692
:103BD0007B68D31ABA689A4202D3BB68002B1DD106
:103BE000FB681B685B6903F00403042B16D0FB68B9
:103BF00000221A63FB68202283F83D20FB68002224
:103C000083F83E20FB681B6C43F02002FB681A64BB
:103C1000FB68002283F83C20012307E0FB681B6857
:103C20005B6903F00403042BC3D10023184610374B
:103C3000BD4680BD80B584B000AFF860B9607A60E1
:103C400049E0FB681B685B6903F01003102B19D176
:103C5000FB681B686FF010025A61FB6800221A6350
:103C6000FB68202283F83D20FB68002283F83E2079
:103C7000FB681A6CFB681A64FB68002283F83C201E
:103C8000012330E0FEF7BEF902467B68D31ABA681A
:103C90009A4202D3BB68002B1DD1FB681B685B698D
:103CA00003F04003402B16D0FB6800221A63FB6828
:103CB000202283F83D20FB68002283F83E20FB6829
:103CC0001B6C43F02002FB681A64FB68002283F837
:103CD0003C20012307E0FB681B685B6903F040039D
:103CE000402BAED1002318461037BD4680BD80B4AE
:103CF00083B000AF78607B681B685B6903F4806306
:103D0000B3F5806F1BD17B681B686FF480625A61CA
:103D10007B6800221A637B68202283F83D207B6841
:103D2000002283F83E207B681B6C43F004027B6812
:103D30001A647B68002283F83C20012300E0002302
:103D400018460C37BD4680BC7047000080B586B071
:103D500000AF78607B68002B01D101236CE27B68A7
:103D60001B6803F00103002B00F08780924B5B6817
:103D700003F00C03042B0CD08F4B5B6803F00C0397
:103D8000082B12D18C4B5B6803F48033B3F5803F72
:103D90000BD1894B1B6803F40033002B6CD07B687C
:103DA0005B68002B68D1012346E27B685B68B3F552
:103DB000803F06D1804B1B687F4A43F480331360F9
:103DC0002EE07B685B68002B0CD17B4B1B687A4A2A
:103DD00023F480331360784B1B68774A23F48023E5
:103DE00013601DE07B685B68B3F5A02F0CD1724BAC
:103DF0001B68714A43F4802313606F4B1B686E4A43
:103E000043F4803313600BE06B4B1B686A4A23F466
:103E100080331360684B1B68674A23F48023136068
:103E20007B685B68002B13D0FEF7ECF8386108E084
:103E3000FEF7E8F802463B69D31A642B01D9032345
:103E4000FAE15D4B1B6803F40033002BF0D014E063
:103E5000FEF7D8F8386108E0FEF7D4F802463B696F
:103E6000D31A642B01D90323E6E1534B1B6803F4F7
:103E70000033002BF0D100E000BF7B681B6803F02B
:103E80000203002B63D04C4B5B6803F00C03002B48
:103E90000BD0494B5B6803F00C03082B1CD1464B3D
:103EA0005B6803F48033002B16D1434B1B6803F08F
:103EB0000203002B05D07B681B69012B01D0012375
:103EC000BAE13D4B1B6823F0F8027B685B69DB00BD
:103ED000394913430B603AE07B681B69002B20D003
:103EE000364B01221A60FEF78DF8386108E0FEF7C4
:103EF00089F802463B69D31A022B01D903239BE1BF
:103F00002D4B1B6803F00203002BF0D02A4B1B68DB
:103F100023F0F8027B685B69DB00274913430B60E1
:103F200015E0264B00221A60FEF76CF8386108E0B5
:103F3000FEF768F802463B69D31A022B01D9032326
:103F40007AE11D4B1B6803F00203002BF0D17B6864
:103F50001B6803F00803002B3AD07B689B69002B99
:103F600019D0174B01221A60FEF74CF8386108E0AF
:103F7000FEF748F802463B69D31A022B01D9032306
:103F80005AE10D4B5B6A03F00203002BF0D00120D5
:103F900000F0CCFA1CE00A4B00221A60FEF732F85F
:103FA00038610FE0FEF72EF802463B69D31A022B68
:103FB00008D9032340E100BF001002400000424244
:103FC000800442429E4B5B6A03F00203002BE9D15E
:103FD0007B681B6803F00403002B00F0A68000231D
:103FE000FB75974BDB6903F08053002B0DD1944B8D
:103FF000DB69934A43F08053D361914BDB6903F053
:104000008053BB60BB680123FB758E4B1B6803F4B8
:104010008073002B18D18B4B1B688A4A43F4807342
:104020001360FDF7EFFF386108E0FDF7EBFF024694
:104030003B69D31A642B01D90323FDE0814B1B6834
:1040400003F48073002BF0D07B68DB68012B06D172
:104050007B4B1B6A7A4A43F0010313622DE07B68B5
:10406000DB68002B0CD1764B1B6A754A23F00103E9
:104070001362734B1B6A724A23F0040313621CE041
:104080007B68DB68052B0CD16D4B1B6A6C4A43F0D7
:10409000040313626A4B1B6A694A43F0010313620B
:1040A0000BE0674B1B6A664A23F001031362644B03
:1040B0001B6A634A23F0040313627B68DB68002BEE
:1040C00015D0FDF79FFF38610AE0FDF79BFF024620
:1040D0003B69D31A41F28832934201D90323ABE002
:1040E000574B1B6A03F00203002BEED014E0FDF7E0
:1040F00089FF38610AE0FDF785FF02463B69D31A64
:1041000041F28832934201D9032395E04C4B1B6A5C
:1041100003F00203002BEED1FB7D012B05D1484BB0
:10412000DB69474A23F08053D3617B68DB69002B4E
:1041300000F08180424B5B6803F00C03082B61D0D8
:104140007B68DB69022B46D13F4B00221A60FDF7EA
:1041500059FF386108E0FDF755FF02463B69D31A65
:10416000022B01D9032367E0354B1B6803F0007372
:10417000002BF0D17B681B6AB3F5803F08D1304B30
:104180005B6823F400327B689B682D4913434B60C6
:104190002B4B5B6823F474127B68196A7B685B6A3B
:1041A0000B43274913434B60274B01221A60FDF74D
:1041B00029FF386108E0FDF725FF02463B69D31A65
:1041C000022B01D9032337E01D4B1B6803F000735A
:1041D000002BF0D02FE01C4B00221A60FDF712FFDD
:1041E000386108E0FDF70EFF02463B69D31A022B47
:1041F00001D9032320E0124B1B6803F00073002B4E
:10420000F0D118E07B68DB69012B01D1012313E0B9
:104210000B4B5B68FB60FB6803F480327B681B6AB6
:104220009A4206D1FB6803F470127B685B6A9A427B
:1042300001D0012300E0002318461837BD4680BD99
:1042400000100240007000406000424280B584B01F
:1042500000AF786039607B68002B01D10123D0E08A
:104260006A4B1B6803F007033A689A4210D9674B00
:104270001B6823F0070265493B6813430B60634BDF
:104280001B6803F007033A689A4201D00123B8E0A3
:104290007B681B6803F00203002B20D07B681B683F
:1042A00003F00403002B05D0594B5B68584A43F4D4
:1042B000E06353607B681B6803F00803002B05D0A4
:1042C000534B5B68524A43F460535360504B5B68F6
:1042D00023F0F0027B689B684D4913434B607B6879
:1042E0001B6803F00103002B40D07B685B68012B47
:1042F00007D1474B1B6803F40033002B15D1012372
:104300007FE07B685B68022B07D1414B1B6803F0A1
:104310000073002B09D1012373E03D4B1B6803F0B0
:104320000203002B01D101236BE0394B5B6823F0C2
:1043300003027B685B68364913434B60FDF762FEFE
:10434000F8600AE0FDF75EFE0246FB68D31A41F210
:104350008832934201D9032353E02D4B5B6803F06D
:104360000C027B685B689B009A42EBD1274B1B6871
:1043700003F007033A689A4210D2244B1B6823F0DB
:10438000070222493B6813430B60204B1B6803F074
:1043900007033A689A4201D0012332E07B681B6828
:1043A00003F00403002B08D0194B5B6823F4E06290
:1043B0007B68DB68164913434B607B681B6803F01E
:1043C0000803002B09D0124B5B6823F460527B6812
:1043D0001B69DB000E4913434B6000F021F80246D5
:1043E0000B4B5B681B0903F00F030A49CB5C22FAF5
:1043F00003F3094A1360094B1B681846FDF7C0FD1B
:10440000002318461037BD4680BD00BF0020024083
:1044100000100240A08100080000002004000020DD
:1044200080B487B000AF0023FB600023BB60002393
:104430007B6100237B6000233B611E4B5B68FB605C
:10444000FB6803F00C03042B02D0082B03D027E0F9
:10445000194B3B6127E0FB689B0C03F00F03174AE5
:10446000D35C7B60FB6803F48033002B10D0114BCE
:104470005B685B0C03F00103114AD35CBB607B6893
:104480000D4A02FB03F2BB68B2FBF3F37B6104E06D
:104490007B680C4A02FB03F37B617B693B6102E0B2
:1044A000054B3B6100BF3B6918461C37BD4680BCCD
:1044B000704700BF0010024000127A00B881000867
:1044C000C881000800093D0080B400AF024B1B68A2
:1044D0001846BD4680BC70470000002080B500AF84
:1044E000FFF7F2FF0246054B5B681B0A03F0070368
:1044F0000349CB5C22FA03F3184680BD001002404A
:10450000B081000880B500AFFFF7DEFF0246054B23
:104510005B68DB0A03F007030349CB5C22FA03F371
:10452000184680BD00100240B081000880B485B0FC
:1045300000AF78600A4B1B680A4AA2FB03235B0AA0
:104540007A6802FB03F3FB6000BFFB685A1EFA6047
:10455000002BF9D100BF00BF1437BD4680BC7047A7
:1045600000000020D34D621080B582B000AF7860AB
:104570007B68002B01D1012341E07B6893F83D303B
:10458000DBB2002B06D17B68002283F83C207868E0
:10459000FDF78CFA7B68022283F83D207B681A685D
:1045A0007B6804331946104600F05CFA7B680122F0
:1045B00083F846207B68012283F83E207B68012235
:1045C00083F83F207B68012283F840207B6801222A
:1045D00083F841207B68012283F842207B68012216
:1045E00083F843207B68012283F844207B68012202
:1045F00083F845207B68012283F83D20002318467C
:104600000837BD4680BD000080B485B000AF78603B
:104610007B6893F83D30DBB2012B01D001233AE0F7
:104620007B68022283F83D207B681B68DA687B6820
:104630001B6842F00102DA607B681B68184A9342EB
:104640000ED07B681B68B3F1804F09D07B681B6874
:10465000144A934204D07B681B68134A934211D1D9
:104660007B681B689B6803F00703FB60FB68062BF5
:1046700010D07B681B681A687B681B6842F00102D7
:104680001A6007E07B681B681A687B681B6842F049
:1046900001021A60002318461437BD4680BC7047DB
:1046A000002C0140000400400008004080B584B0A8
:1046B00000AF78607B681B68DB68FB607B681B6809
:1046C0001B69BB60BB6803F00203002B20D0FB68B2
:1046D00003F00203002B1BD07B681B686FF0020203
:1046E0001A617B6801221A777B681B689B6903F05B
:1046F0000303002B03D0786800F098F905E0786890
:1047000000F08BF9786800F09AF97B6800221A773C
:10471000BB6803F00403002B20D0FB6803F0040304
:10472000002B1BD07B681B686FF004021A617B684A
:1047300002221A777B681B689B6903F44073002B85
:1047400003D0786800F072F905E0786800F065F948
:10475000786800F074F97B6800221A77BB6803F070
:104760000803002B20D0FB6803F00803002B1BD0AC
:104770007B681B686FF008021A617B6804221A7755
:104780007B681B68DB6903F00303002B03D07868A8
:1047900000F04CF905E0786800F03FF9786800F027
:1047A0004EF97B6800221A77BB6803F01003002BD8
:1047B00020D0FB6803F01003002B1BD07B681B6824
:1047C0006FF010021A617B6808221A777B681B68F9
:1047D000DB6903F44073002B03D0786800F026F9FE
:1047E00005E0786800F019F9786800F028F97B682E
:1047F00000221A77BB6803F00103002B0CD0FB6882
:1048000003F00103002B07D07B681B686FF00102E7
:104810001A617868FCF752FFBB6803F08003002B35
:104820000CD0FB6803F08003002B07D07B681B686B
:104830006FF080021A61786800F07FFABB6803F0BD
:104840004003002B0CD0FB6803F04003002B07D083
:104850007B681B686FF040021A61786800F0F8F816
:10486000BB6803F02003002B0CD0FB6803F020038F
:10487000002B07D07B681B686FF020021A617868F4
:1048800000F052FA00BF1037BD4680BD80B584B03D
:1048900000AF786039600023FB737B6893F83C308D
:1048A000012B01D10223B4E07B68012283F83C2074
:1048B0007B68022283F83D207B681B689B68BB6095
:1048C000BB6823F07703BB60BB6823F47F43BB6006
:1048D0007B681B68BA689A603B681B68B3F5005F29
:1048E0003ED0B3F5005F00F28780B3F5805F00F043
:1048F0008680B3F5805F7FD8702B1AD0702B7BD861
:10490000602B50D0602B77D8502B3CD0502B73D8D5
:10491000402B58D0402B6FD8302B64D0302B6BD825
:10492000202B60D0202B67D8002B5CD0102B5AD0C6
:1049300062E07B6818683B6899683B685A683B6826
:10494000DB6800F074F97B681B689B68BB60BB6820
:1049500043F07703BB607B681B68BA689A604FE0DE
:104960007B6818683B6899683B685A683B68DB68F5
:1049700000F05DF97B681B689A687B681B6842F4ED
:1049800080429A603CE07B6818683B6859683B68E5
:10499000DB681A4600F0D4F87B681B685021184683
:1049A00000F02BF92CE07B6818683B6859683B687D
:1049B000DB681A4600F0F2F87B681B686021184635
:1049C00000F01BF91CE07B6818683B6859683B687D
:1049D000DB681A4600F0B4F87B681B684021184673
:1049E00000F00BF90CE07B681A683B681B681946FD
:1049F000104600F002F903E00123FB7300E000BF62
:104A00007B68012283F83D207B68002283F83C20EC
:104A1000FB7B18461037BD4680BD80B483B000AF25
:104A2000786000BF0C37BD4680BC704780B483B04F
:104A300000AF786000BF0C37BD4680BC704780B4C3
:104A400083B000AF786000BF0C37BD4680BC7047B4
:104A500080B483B000AF786000BF0C37BD4680BC27
:104A60007047000080B485B000AF786039607B6823
:104A70001B68FB607B682F4A93420BD07B68B3F1C5
:104A8000804F07D07B682C4A934203D07B682B4A27
:104A9000934208D1FB6823F07003FB603B685B68BE
:104AA000FA681343FB607B68224A93420BD07B6811
:104AB000B3F1804F07D07B681F4A934203D07B68D5
:104AC0001E4A934208D1FB6823F44073FB603B68A5
:104AD000DB68FA681343FB60FB6823F080023B68E5
:104AE0005B691343FB607B68FA681A603B689A68ED
:104AF0007B68DA623B681A687B689A627B680D4A59
:104B0000934203D13B681A697B681A637B68012270
:104B10005A617B681B6903F00103002B05D07B6899
:104B20001B6923F001027B681A6100BF1437BD4680
:104B300080BC7047002C0140000400400008004089
:104B400080B487B000AFF860B9607A60FB681B6A18
:104B50007B61FB681B6A23F00102FB681A62FB6839
:104B60009B693B613B6923F0F0033B617B681B0160
:104B70003A6913433B617B6923F00A037B617A69DD
:104B8000BB6813437B61FB683A699A61FB687A6989
:104B90001A6200BF1C37BD4680BC704780B487B026
:104BA00000AFF860B9607A60FB681B6A7B61FB68E4
:104BB0001B6A23F01002FB681A62FB689B693B6169
:104BC0003B6923F470433B617B681B033A691343E1
:104BD0003B617B6923F0A0037B61BB681B017A69A1
:104BE00013437B61FB683A699A61FB687A691A62D0
:104BF00000BF1C37BD4680BC704780B485B000AF95
:104C0000786039607B689B68FB60FB6823F0700309
:104C1000FB603A68FB68134343F00703FB607B6863
:104C2000FA689A6000BF1437BD4680BC704780B4F4
:104C300087B000AFF860B9607A603B60FB689B6842
:104C40007B617B6923F47F437B613B681A027B684D
:104C50001A43BB6813437A6913437B61FB687A6923
:104C60009A6000BF1C37BD4680BC704780B485B0D9
:104C700000AF786039607B6893F83C30012B01D13C
:104C8000022346E07B68012283F83C207B680222F5
:104C900083F83D207B681B685B68FB607B681B6852
:104CA0009B68BB60FB6823F07003FB603B681B687C
:104CB000FA681343FB607B681B68FA685A607B687C
:104CC0001B68164A93420ED07B681B68B3F1804F75
:104CD00009D07B681B68124A934204D07B681B682A
:104CE000104A93420CD1BB6823F08003BB603B6841
:104CF0005B68BA681343BB607B681B68BA689A60DC
:104D00007B68012283F83D207B68002283F83C20E9
:104D1000002318461437BD4680BC7047002C014064
:104D2000000400400008004080B483B000AF786009
:104D300000BF0C37BD4680BC704780B483B000AF65
:104D4000786000BF0C37BD4680BC704780B582B02C
:104D500000AF78607B68002B01D1012342E07B68C3
:104D600093F84130DBB2002B06D17B68002283F838
:104D700040207868FCF7BEFE7B68242283F841203F
:104D80007B681B68DA687B681B6822F40052DA6073
:104D9000786800F071F97B681B681A697B681B688A
:104DA00022F490421A617B681B685A697B681B6811
:104DB00022F02A025A617B681B68DA687B681B68EC
:104DC00042F40052DA607B6800225A647B68202239
:104DD00083F841207B68202283F842207B680022F0
:104DE0005A63002318460837BD4680BD80B58AB097
:104DF00002AFF860B9603B601346FB8000237B6123
:104E0000FB6893F84130DBB2202B75D1BB68002BD7
:104E100002D0FB88002B01D101236EE0FB68002249
:104E20005A64FB68212283F84120FDF7EBF8786192
:104E3000FB68FA889A84FB68FA88DA84FB689B68C6
:104E4000B3F5805F08D1FB681B69002B04D10023F8
:104E5000FB61BB68BB6103E0BB68FB610023BB6116
:104E60002EE03B6800937B6900228021F86800F007
:104E700048F80346002B05D0FB68202283F8412028
:104E800003233AE0FB69002B0BD1BB691B881A4650
:104E9000FB681B68C2F308025A60BB690233BB613E
:104EA00007E0FB691A78FB681B685A60FB690133ED
:104EB000FB61FB68DB8C9BB2013B9AB2FB68DA8436
:104EC000FB68DB8C9BB2002BCBD13B6800937B69EA
:104ED00000224021F86800F014F80346002B05D0AA
:104EE000FB68202283F84120032306E0FB68202290
:104EF00083F84120002300E0022318462037BD46F6
:104F000080BD80B586B000AFF860B9603B601346E5
:104F1000FB713BE03B6AB3F1FF3F37D0FDF772F81E
:104F200002463B68D31A3A6A9A4202D33B6A002B84
:104F300001D103233AE0FB681B68DB6803F004033C
:104F4000002B23D0BB68802B20D0BB68402B1DD00A
:104F5000FB681B681B6803F00803082B16D10023AD
:104F60007B61FB681B681B687B61FB681B685B6877
:104F70007B617B69F86800F01DF8FB6808225A64C1
:104F8000FB68002283F8402001230FE0FB681B68C8
:104F90001A68BB681340BA689A420CBF0123002309
:104FA000DBB21A46FB799A42B4D000231846183770
:104FB000BD4680BD80B495B000AF78607B681B684B
:104FC0000C337B637B6B53E8003F3B633B6B23F409
:104FD0009073FB647B681B680C33FA6C3A64FB6368
:104FE000F96B3A6C41E80023BB63BB6B002BE5D146
:104FF0007B681B6814333B623B6A53E8003FFB61EC
:10500000FB6923F00103BB647B681B681433BA6C33
:10501000FA62BB62B96AFA6A41E800237B627B6A82
:10502000002BE5D17B681B6B012B19D17B681B68BA
:105030000C33FB60FB6853E8003FBB60BB6823F0A8
:1050400010037B647B681B680C337A6CBA617B61EC
:105050007969BA6941E800233B613B69002BE5D1DE
:105060007B68202283F842207B6800221A6300BFFD
:105070005437BD4680BC704780B584B000AF7860BF
:105080007B681B681B6923F440517B68DA687B6886
:105090001B680A431A617B689A687B681B691A431C
:1050A0007B685B691343BB607B681B68DB6823F428
:1050B000B05323F00C037A681268B9680B43D360CD
:1050C0007B681B685B6923F440717B689A697B6825
:1050D0001B680A435A617B681B682C4A934203D1C0
:1050E000FFF710FAF86002E0FFF7F8F9F860FA68E5
:1050F00013469B0013449A001A447B685B689B002C
:10510000B2FBF3F3224AA2FB03235B091901FA68FD
:1051100013469B0013449A001A447B685B689B000B
:10512000B2FBF3F21A4BA3FB02035B09642000FB02
:1051300003F3D31A1B013233154AA2FB03235B0985
:1051400003F0F0031944FA6813469B0013449A00D5
:105150001A447B685B689B00B2FBF3F20C4BA3FB29
:1051600002035B09642000FB03F3D31A1B013233F3
:10517000074AA2FB03235B0903F00F027B681B684D
:105180000A449A6000BF1037BD4680BD0038014018
:105190001F85EB51014B1868704700BF0C000020C1
:1051A00070B500260C4D0D4C641BA410A64209D10D
:1051B00002F066FF00260A4D0A4C641BA410A642AA
:1051C00005D170BD55F8043B98470136EEE755F818
:1051D000043B98470136F2E7AC850008AC8500082F
:1051E000AC850008B0850008024B0146186800F045
:1051F0005FB800BF0C000020024B0146186800F0A9
:105200000BB800BF0C00002003460244934200D1BB
:10521000704703F8011BF9E738B50546002943D06C
:1052200051F8043C0C1F002BB8BFE41801F04AFFF2
:105230001E4A1368104633B9636014602846BDE8FF
:10524000384001F045BFA3420AD921686218934251
:1052500001BF1A685B685218226063600460EDE762
:105260001A465B680BB1A342FAD911685018A042E4
:105270000BD120680144501883421160DED11868B8
:105280005B68014411605360D8E702D90C232B609E
:10529000D4E7206821188B4201BF19685B680918A0
:1052A000216063605460C9E738BD00BF0802002078
:1052B000F8B5CD1C25F0030508350C2D38BF0C259D
:1052C000002D064601DBA94203D90C2333600020E0
:1052D000F8BD01F0F7FE21490A6814469CB9204F39
:1052E0003B6823B92146304600F02AFD3860294644
:1052F000304600F025FD431C23D10C23304633609B
:1053000001F0E6FEE3E723685B1B17D40B2B03D900
:1053100023601C44256004E06368A2420CBF0B605C
:105320005360304601F0D4FE04F10B00231D20F041
:105330000700C21ACCD01B1AA350C9E722466468E2
:10534000CCE7C41C24F00304A042E3D0211A304669
:1053500000F0F6FC0130DDD1CFE700BF08020020ED
:105360000C020020002B2DE9F0471F46BBBF03F1C4
:1053700000431F4600232D2388B01446129A109D27
:105380001370149BDDF84CA023F02008B8F1460FF1
:1053900005D0B8F1450F00D10135022300E0032309
:1053A00007AA049206AACDE902A2CDE90035224659
:1053B0003B4600F059FEB8F1470F064602D1119B5B
:1053C000DB0722D5B8F1460F06EB050910D133787B
:1053D000302B0AD10022002320463946FBF7E4FA9D
:1053E00018B9C5F10105CAF80050DAF8003099443F
:1053F0000022002320463946FBF7D6FA08B1CDF843
:105400001C903022079B4B4507D33046079B159ACB
:105410009B1B136008B0BDE8F087591C07911A70F8
:10542000F0E70346F7B5002903F8022BB6BF2D229B
:105430002B224942092942702BDD0DF10704A446B5
:105440000A2791FBF7F60A46A64607FB1615632ABC
:1054500005F13005314604F1FF340EF8015CF0DC53
:105460003031AEF1020504F8011C2946441C6145A7
:105470000AD30DF10902A2EB0E02654588BF002296
:105480001344181A03B0F0BD11F8012B04F8012FD2
:10549000EDE7302330318370C170031DF1E7000068
:1054A0002DE9F04F91B00C46DDF8688016461F4696
:1054B000054601F07FFD036818460993FAF748FE98
:1054C00000230E93D8F800300A90073323F0070327
:1054D00003F1080294F81890D4F800B0C8F800203E
:1054E000D3E90023C4E91223D4E9128A2AF0004345
:1054F0000B934FF0FF3240469C4B0B99FBF786FA1B
:1055000070BB4FF0FF324046984B0B99FBF760FAA7
:1055100030BB0022002340465146FBF74FFA10B142
:105520002D2384F84330924B9248B9F1470F94BF32
:105530009846804603234FF0000A23612BF00403B2
:10554000236033462146284600970FAA00F0D4F97D
:10555000013040F090804FF0FF3011B0BDE8F08F87
:105560004246534640465146FBF750FA48B1BAF11D
:10557000000FB8BF2D238048B8BF84F843307F4B5D
:10558000D3E7636809F0DF015A1C42D10623636048
:10559000002206920EAACDE904920DAA4BF4806374
:1055A00003920DF13302CDE9013223606368424674
:1055B0000093284653460B91FFF7D4FE0B99804683
:1055C00047290D9908D1C81C02DB6368994240DD68
:1055D000A9F102095FFA89F9B9F1650F1FD84A46A6
:1055E000013904F150000D91FFF71BFF0E9A82461E
:1055F0001318012A236102DC2268D20701D5013386
:1056000023619DF83330002B9BD02D2384F8433049
:1056100097E74729BCD1002BBAD10123B7E7B9F1ED
:10562000660F18D1002963680BDD216113B9226868
:10563000D00702D501330B4423614FF0000AA16566
:10564000DFE713B92268D20701D50233F4E701235B
:10565000F2E74FF067090E9B994205DB2368216151
:10566000D807EAD54B1CE7E70029CCBF0122C1F1DE
:1056700002021344E0E723685A0507D4236942462F
:1056800031462846B84701302BD164E7B9F1650FA0
:1056900040F2DD80D4E9120100220023FBF784F9F7
:1056A000002833D0012331462846354AB847013017
:1056B0003FF451AFDDE90D239A4202DB2368D8079E
:1056C0000FD5DDE9092331462846B84701303FF4BC
:1056D00042AF4FF0000804F11A090E9B013B43450D
:1056E00009DC23689B0700F10281E0680F9B984268
:1056F000B8BF184631E701234A4631462846B84725
:1057000001303FF428AF08F10108E6E70D9B002BBC
:1057100038DC012331462846194AB84701303FF4A6
:105720001AAFDDE90D23134302D12368D907D8D579
:10573000DDE9092331462846B84701303FF40BAF75
:105740004FF0000904F11A0A0D9B5B424B4501DC46
:105750000E9B94E70123524631462846B847013054
:105760003FF4F9AE09F10109EEE700BFFFFFEF7F5B
:10577000D0810008D4810008DC810008D8810008AD
:10578000E08100080E9AA36D9A42A8BF1A46002A2B
:10579000914637DC4FF0000B29EAE97904F11A024F
:1057A000D4F858A0AAEB09035B4533DCDDE90D23EF
:1057B0009A423BDB2368DA0738D40E9A0D99A2EBA4
:1057C0000A03A2EB01099945A8BF9946B9F1000F58
:1057D00034DC4FF0000829EAE97904F11A0ADDE91E
:1057E0000D239B1AA3EB090343457FF77AAF0123EF
:1057F000524631462846B84701303FF4ACAE08F176
:105800000108ECE71346314642462846B8470130C6
:10581000C0D1A0E60123314628460B92B84701309B
:105820003FF499AE0B9A0BF1010BB9E73146DDE974
:1058300009232846B8470130BFD18CE64B46314694
:10584000284608EB0A02B8470130C2D183E60E9A17
:10585000012A01DCDB0737D50123424631462846C1
:10586000B84701303FF477AEDDE9092331462846D9
:10587000B84701303FF46FAED4E912010022002393
:10588000FBF792F8D8B90E9B08F10102013B3146B3
:105890002846B84701300ED15DE601234A4631461D
:1058A0002846B84701303FF456AE08F101080E9B78
:1058B000013B4345F1DC534604F15002E0E64FF072
:1058C000000804F11A09F2E701234246DFE7012349
:1058D0004A4631462846B84701303FF43CAE08F10D
:1058E0000108E3680F995B1A4345F0DCFDE64FF0D1
:1058F000000804F11909F4E72DE9F0471646994626
:105900008A680B6907469342B8BF1346336091F823
:1059100043200C46DDF820800AB101333360236850
:10592000990642BF336802333360256815F00605D7
:1059300006D104F1190AE36832689B1AAB4228DCED
:1059400094F84320131E226818BF012392062DD419
:105950004946384604F14302C047013020D023684D
:10596000E56803F00603042B18BF002532684FF0EA
:105970000006A36808BFAD1A226908BF25EAE575CD
:105980009342C4BF9B1AED181A34B5421AD10020B5
:1059900008E00123524649463846C047013003D14A
:1059A0004FF0FF30BDE8F0870135C4E73020E11843
:1059B00081F843005A1C94F845102244023382F8BF
:1059C0004310C5E70123224649463846C047013007
:1059D000E6D00136D9E700002DE9FF470C46277EC7
:1059E0009146782F80469A460C9904F1430207D8D5
:1059F000622F0AD8002F00F0D980582F00F0A48021
:105A000004F1420684F842703AE0A7F16303152BD3
:105A1000F6D801A050F823F0715A0008855A000802
:105A2000015A0008015A0008015A0008015A0008EA
:105A3000855A0008015A0008015A0008015A000856
:105A4000015A0008935B0008B55A0008755B00080E
:105A5000015A0008015A0008B55B0008015A000805
:105A6000B55A0008015A0008015A00087D5B000879
:105A70000B6804F142061A1D1B680A6084F8423064
:105A80000123A4E0256808682E0600F104030AD566
:105A900005680B60002D03DA2D236D4284F8433036
:105AA0000A235E4819E015F0400F05680B6018BF27
:105AB0002DB2EFE70B682568181D0860280601D590
:105AC0001D6802E06906FBD51D886F2F0CBF0823F7
:105AD0000A235248002184F843106668002EA8BFAC
